{
  "contractName": "admin",
  "abi": [
    {
      "inputs": [
        {
          "internalType": "uint256",
          "name": "",
          "type": "uint256"
        }
      ],
      "name": "Doctors",
      "outputs": [
        {
          "internalType": "address",
          "name": "add",
          "type": "address"
        },
        {
          "internalType": "uint256",
          "name": "id",
          "type": "uint256"
        },
        {
          "internalType": "string",
          "name": "specilization",
          "type": "string"
        },
        {
          "internalType": "string",
          "name": "name",
          "type": "string"
        }
      ],
      "stateMutability": "view",
      "type": "function"
    },
    {
      "inputs": [
        {
          "internalType": "uint256",
          "name": "",
          "type": "uint256"
        }
      ],
      "name": "Patients",
      "outputs": [
        {
          "internalType": "string",
          "name": "name",
          "type": "string"
        },
        {
          "internalType": "address",
          "name": "add",
          "type": "address"
        },
        {
          "internalType": "uint256",
          "name": "age",
          "type": "uint256"
        },
        {
          "internalType": "string",
          "name": "gender",
          "type": "string"
        },
        {
          "internalType": "string",
          "name": "contact",
          "type": "string"
        },
        {
          "internalType": "string",
          "name": "symptoms",
          "type": "string"
        },
        {
          "internalType": "string",
          "name": "need",
          "type": "string"
        },
        {
          "internalType": "string",
          "name": "assigned",
          "type": "string"
        },
        {
          "internalType": "uint256",
          "name": "id",
          "type": "uint256"
        },
        {
          "internalType": "string",
          "name": "prescription",
          "type": "string"
        }
      ],
      "stateMutability": "view",
      "type": "function"
    },
    {
      "inputs": [
        {
          "internalType": "string",
          "name": "_name",
          "type": "string"
        },
        {
          "internalType": "address",
          "name": "_add",
          "type": "address"
        },
        {
          "internalType": "uint256",
          "name": "_age",
          "type": "uint256"
        },
        {
          "internalType": "string",
          "name": "_gender",
          "type": "string"
        },
        {
          "internalType": "string",
          "name": "_symptoms",
          "type": "string"
        },
        {
          "internalType": "string",
          "name": "_need",
          "type": "string"
        },
        {
          "internalType": "string",
          "name": "_phone",
          "type": "string"
        }
      ],
      "name": "addPatient",
      "outputs": [],
      "stateMutability": "payable",
      "type": "function"
    },
    {
      "inputs": [
        {
          "internalType": "address",
          "name": "_add",
          "type": "address"
        },
        {
          "internalType": "int256[]",
          "name": "_patients",
          "type": "int256[]"
        },
        {
          "internalType": "string",
          "name": "_speciality",
          "type": "string"
        },
        {
          "internalType": "string",
          "name": "_name",
          "type": "string"
        }
      ],
      "name": "addDoctor",
      "outputs": [],
      "stateMutability": "payable",
      "type": "function"
    },
    {
      "inputs": [
        {
          "internalType": "uint256",
          "name": "_id",
          "type": "uint256"
        },
        {
          "internalType": "string",
          "name": "_new",
          "type": "string"
        }
      ],
      "name": "checkUp",
      "outputs": [],
      "stateMutability": "payable",
      "type": "function"
    },
    {
      "inputs": [
        {
          "internalType": "uint256",
          "name": "_id",
          "type": "uint256"
        },
        {
          "internalType": "string",
          "name": "pres",
          "type": "string"
        }
      ],
      "name": "prescribe",
      "outputs": [],
      "stateMutability": "payable",
      "type": "function"
    },
    {
      "inputs": [],
      "name": "assigned",
      "outputs": [],
      "stateMutability": "payable",
      "type": "function"
    },
    {
      "inputs": [
        {
          "internalType": "address",
          "name": "add",
          "type": "address"
        },
        {
          "internalType": "uint256",
          "name": "_id",
          "type": "uint256"
        }
      ],
      "name": "doclog",
      "outputs": [
        {
          "internalType": "bool",
          "name": "",
          "type": "bool"
        }
      ],
      "stateMutability": "view",
      "type": "function"
    },
    {
      "inputs": [
        {
          "internalType": "address",
          "name": "add",
          "type": "address"
        },
        {
          "internalType": "uint256",
          "name": "_id",
          "type": "uint256"
        }
      ],
      "name": "patlog",
      "outputs": [
        {
          "internalType": "bool",
          "name": "",
          "type": "bool"
        }
      ],
      "stateMutability": "view",
      "type": "function"
    }
  ],
  "bytecode": "0x60806040526000600255600060035534801561001a57600080fd5b50611d788061002a6000396000f3fe6080604052600436106100865760003560e01c80639ccca7bf116100595780639ccca7bf14610140578063a19828351461015c578063adb4d990146101a2578063d20840fc146101ac578063e1654420146101e957610086565b8063271516721461008b57806342c3d6ab146100cb5780635b83286a146100e757806361bed11114610124575b600080fd5b34801561009757600080fd5b506100b260048036038101906100ad9190611076565b610205565b6040516100c29493929190611183565b60405180910390f35b6100e560048036038101906100e09190611337565b610375565b005b3480156100f357600080fd5b5061010e60048036038101906101099190611465565b6105a3565b60405161011b91906114c0565b60405180910390f35b61013e600480360381019061013991906115d9565b610688565b005b61015a60048036038101906101559190611694565b6107e2565b005b34801561016857600080fd5b50610183600480360381019061017e9190611076565b610867565b6040516101999a999897969594939291906116f0565b60405180910390f35b6101aa610ca3565b005b3480156101b857600080fd5b506101d360048036038101906101ce9190611465565b610daa565b6040516101e091906114c0565b60405180910390f35b61020360048036038101906101fe9190611694565b610e8f565b005b6000818154811061021557600080fd5b90600052602060002090600502016000915090508060000160009054906101000a900473ffffffffffffffffffffffffffffffffffffffff1690806001015490806003018054610264906117ec565b80601f0160208091040260200160405190810160405280929190818152602001828054610290906117ec565b80156102dd5780601f106102b2576101008083540402835291602001916102dd565b820191906000526020600020905b8154815290600101906020018083116102c057829003601f168201915b5050505050908060040180546102f2906117ec565b80601f016020809104026020016040519081016040528092919081815260200182805461031e906117ec565b801561036b5780601f106103405761010080835404028352916020019161036b565b820191906000526020600020905b81548152906001019060200180831161034e57829003601f168201915b5050505050905084565b61037d610f14565b87816000018190525086816020019073ffffffffffffffffffffffffffffffffffffffff16908173ffffffffffffffffffffffffffffffffffffffff168152505085816040018181525050848160600181905250838160a00181905250828160c00181905250818160800181905250604051806020016040528060008152508160e001819052506001600254610413919061184c565b816101000181815250506040518060400160405280600481526020017f6e6f6e650000000000000000000000000000000000000000000000000000000081525081610120018190525060018190806001815401808255809150506001900390600052602060002090600a0201600090919091909150600082015181600001908161049d9190611a2c565b5060208201518160010160006101000a81548173ffffffffffffffffffffffffffffffffffffffff021916908373ffffffffffffffffffffffffffffffffffffffff1602179055506040820151816002015560608201518160030190816105049190611a2c565b50608082015181600401908161051a9190611a2c565b5060a08201518160050190816105309190611a2c565b5060c08201518160060190816105469190611a2c565b5060e082015181600701908161055c9190611a2c565b50610100820151816008015561012082015181600901908161057e9190611a2c565b5050506002600081548092919061059490611afe565b91905055505050505050505050565b600080600090505b6003548110156106805782600182815481106105ca576105c9611b46565b5b90600052602060002090600a0201600801540361066d578373ffffffffffffffffffffffffffffffffffffffff166001828154811061060c5761060b611b46565b5b90600052602060002090600a020160010160009054906101000a900473ffffffffffffffffffffffffffffffffffffffff1673ffffffffffffffffffffffffffffffffffffffff1603610663576001915050610682565b6000915050610682565b808061067890611afe565b9150506105ab565b505b92915050565b610690610f7d565b81816080018190525082816060018190525083816040018190525084816000019073ffffffffffffffffffffffffffffffffffffffff16908173ffffffffffffffffffffffffffffffffffffffff168152505060016003546106f2919061184c565b8160200181815250506003600081548092919061070e90611afe565b9190505550600081908060018154018082558091505060019003906000526020600020906005020160009091909190915060008201518160000160006101000a81548173ffffffffffffffffffffffffffffffffffffffff021916908373ffffffffffffffffffffffffffffffffffffffff1602179055506020820151816001015560408201518160020190805190602001906107ac929190610fc2565b5060608201518160030190816107c29190611a2c565b5060808201518160040190816107d89190611a2c565b5050505050505050565b60005b60025481101561082f57826001828154811061080457610803611b46565b5b90600052602060002090600a020160080154031561082f57808061082790611afe565b9150506107e5565b816001828154811061084457610843611b46565b5b90600052602060002090600a020160050190816108619190611a2c565b50505050565b6001818154811061087757600080fd5b90600052602060002090600a020160009150905080600001805461089a906117ec565b80601f01602080910402602001604051908101604052809291908181526020018280546108c6906117ec565b80156109135780601f106108e857610100808354040283529160200191610913565b820191906000526020600020905b8154815290600101906020018083116108f657829003601f168201915b5050505050908060010160009054906101000a900473ffffffffffffffffffffffffffffffffffffffff1690806002015490806003018054610954906117ec565b80601f0160208091040260200160405190810160405280929190818152602001828054610980906117ec565b80156109cd5780601f106109a2576101008083540402835291602001916109cd565b820191906000526020600020905b8154815290600101906020018083116109b057829003601f168201915b5050505050908060040180546109e2906117ec565b80601f0160208091040260200160405190810160405280929190818152602001828054610a0e906117ec565b8015610a5b5780601f10610a3057610100808354040283529160200191610a5b565b820191906000526020600020905b815481529060010190602001808311610a3e57829003601f168201915b505050505090806005018054610a70906117ec565b80601f0160208091040260200160405190810160405280929190818152602001828054610a9c906117ec565b8015610ae95780601f10610abe57610100808354040283529160200191610ae9565b820191906000526020600020905b815481529060010190602001808311610acc57829003601f168201915b505050505090806006018054610afe906117ec565b80601f0160208091040260200160405190810160405280929190818152602001828054610b2a906117ec565b8015610b775780601f10610b4c57610100808354040283529160200191610b77565b820191906000526020600020905b815481529060010190602001808311610b5a57829003601f168201915b505050505090806007018054610b8c906117ec565b80601f0160208091040260200160405190810160405280929190818152602001828054610bb8906117ec565b8015610c055780601f10610bda57610100808354040283529160200191610c05565b820191906000526020600020905b815481529060010190602001808311610be857829003601f168201915b505050505090806008015490806009018054610c20906117ec565b80601f0160208091040260200160405190810160405280929190818152602001828054610c4c906117ec565b8015610c995780601f10610c6e57610100808354040283529160200191610c99565b820191906000526020600020905b815481529060010190602001808311610c7c57829003601f168201915b505050505090508a565b60005b600254811015610da75760005b600354811015610da15760008181548110610cd157610cd0611b46565b5b9060005260206000209060050201600301604051610cef9190611c18565b604051809103902060018381548110610d0b57610d0a611b46565b5b90600052602060002090600a0201600601604051610d299190611c18565b604051809103902003610d8e5760008181548110610d4a57610d49611b46565b5b906000526020600020906005020160040160018381548110610d6f57610d6e611b46565b5b90600052602060002090600a02016007019081610d8c9190611c5a565b505b8080610d9990611afe565b915050610cb3565b50610ca6565b50565b600080600090505b600354811015610e87578260008281548110610dd157610dd0611b46565b5b90600052602060002090600502016001015403610e74578373ffffffffffffffffffffffffffffffffffffffff1660008281548110610e1357610e12611b46565b5b906000526020600020906005020160000160009054906101000a900473ffffffffffffffffffffffffffffffffffffffff1673ffffffffffffffffffffffffffffffffffffffff1603610e6a576001915050610e89565b6000915050610e89565b8080610e7f90611afe565b915050610db2565b505b92915050565b60005b600254811015610edc578260018281548110610eb157610eb0611b46565b5b90600052602060002090600a0201600801540315610edc578080610ed490611afe565b915050610e92565b8160018281548110610ef157610ef0611b46565b5b90600052602060002090600a02016009019081610f0e9190611a2c565b50505050565b60405180610140016040528060608152602001600073ffffffffffffffffffffffffffffffffffffffff16815260200160008152602001606081526020016060815260200160608152602001606081526020016060815260200160008152602001606081525090565b6040518060a00160405280600073ffffffffffffffffffffffffffffffffffffffff168152602001600081526020016060815260200160608152602001606081525090565b828054828255906000526020600020908101928215610ffe579160200282015b82811115610ffd578251825591602001919060010190610fe2565b5b50905061100b919061100f565b5090565b5b80821115611028576000816000905550600101611010565b5090565b6000604051905090565b600080fd5b600080fd5b6000819050919050565b61105381611040565b811461105e57600080fd5b50565b6000813590506110708161104a565b92915050565b60006020828403121561108c5761108b611036565b5b600061109a84828501611061565b91505092915050565b600073ffffffffffffffffffffffffffffffffffffffff82169050919050565b60006110ce826110a3565b9050919050565b6110de816110c3565b82525050565b6110ed81611040565b82525050565b600081519050919050565b600082825260208201905092915050565b60005b8381101561112d578082015181840152602081019050611112565b60008484015250505050565b6000601f19601f8301169050919050565b6000611155826110f3565b61115f81856110fe565b935061116f81856020860161110f565b61117881611139565b840191505092915050565b600060808201905061119860008301876110d5565b6111a560208301866110e4565b81810360408301526111b7818561114a565b905081810360608301526111cb818461114a565b905095945050505050565b600080fd5b600080fd5b7f4e487b7100000000000000000000000000000000000000000000000000000000600052604160045260246000fd5b61121882611139565b810181811067ffffffffffffffff82111715611237576112366111e0565b5b80604052505050565b600061124a61102c565b9050611256828261120f565b919050565b600067ffffffffffffffff821115611276576112756111e0565b5b61127f82611139565b9050602081019050919050565b82818337600083830152505050565b60006112ae6112a98461125b565b611240565b9050828152602081018484840111156112ca576112c96111db565b5b6112d584828561128c565b509392505050565b600082601f8301126112f2576112f16111d6565b5b813561130284826020860161129b565b91505092915050565b611314816110c3565b811461131f57600080fd5b50565b6000813590506113318161130b565b92915050565b600080600080600080600060e0888a03121561135657611355611036565b5b600088013567ffffffffffffffff8111156113745761137361103b565b5b6113808a828b016112dd565b97505060206113918a828b01611322565b96505060406113a28a828b01611061565b955050606088013567ffffffffffffffff8111156113c3576113c261103b565b5b6113cf8a828b016112dd565b945050608088013567ffffffffffffffff8111156113f0576113ef61103b565b5b6113fc8a828b016112dd565b93505060a088013567ffffffffffffffff81111561141d5761141c61103b565b5b6114298a828b016112dd565b92505060c088013567ffffffffffffffff81111561144a5761144961103b565b5b6114568a828b016112dd565b91505092959891949750929550565b6000806040838503121561147c5761147b611036565b5b600061148a85828601611322565b925050602061149b85828601611061565b9150509250929050565b60008115159050919050565b6114ba816114a5565b82525050565b60006020820190506114d560008301846114b1565b92915050565b600067ffffffffffffffff8211156114f6576114f56111e0565b5b602082029050602081019050919050565b600080fd5b6000819050919050565b61151f8161150c565b811461152a57600080fd5b50565b60008135905061153c81611516565b92915050565b6000611555611550846114db565b611240565b9050808382526020820190506020840283018581111561157857611577611507565b5b835b818110156115a1578061158d888261152d565b84526020840193505060208101905061157a565b5050509392505050565b600082601f8301126115c0576115bf6111d6565b5b81356115d0848260208601611542565b91505092915050565b600080600080608085870312156115f3576115f2611036565b5b600061160187828801611322565b945050602085013567ffffffffffffffff8111156116225761162161103b565b5b61162e878288016115ab565b935050604085013567ffffffffffffffff81111561164f5761164e61103b565b5b61165b878288016112dd565b925050606085013567ffffffffffffffff81111561167c5761167b61103b565b5b611688878288016112dd565b91505092959194509250565b600080604083850312156116ab576116aa611036565b5b60006116b985828601611061565b925050602083013567ffffffffffffffff8111156116da576116d961103b565b5b6116e6858286016112dd565b9150509250929050565b600061014082019050818103600083015261170b818d61114a565b905061171a602083018c6110d5565b611727604083018b6110e4565b8181036060830152611739818a61114a565b9050818103608083015261174d818961114a565b905081810360a0830152611761818861114a565b905081810360c0830152611775818761114a565b905081810360e0830152611789818661114a565b90506117996101008301856110e4565b8181036101208301526117ac818461114a565b90509b9a5050505050505050505050565b7f4e487b7100000000000000000000000000000000000000000000000000000000600052602260045260246000fd5b6000600282049050600182168061180457607f821691505b602082108103611817576118166117bd565b5b50919050565b7f4e487b7100000000000000000000000000000000000000000000000000000000600052601160045260246000fd5b600061185782611040565b915061186283611040565b925082820190508082111561187a5761187961181d565b5b92915050565b60008190508160005260206000209050919050565b60006020601f8301049050919050565b600082821b905092915050565b6000600883026118e27fffffffffffffffffffffffffffffffffffffffffffffffffffffffffffffffff826118a5565b6118ec86836118a5565b95508019841693508086168417925050509392505050565b6000819050919050565b600061192961192461191f84611040565b611904565b611040565b9050919050565b6000819050919050565b6119438361190e565b61195761194f82611930565b8484546118b2565b825550505050565b600090565b61196c61195f565b61197781848461193a565b505050565b5b8181101561199b57611990600082611964565b60018101905061197d565b5050565b601f8211156119e0576119b181611880565b6119ba84611895565b810160208510156119c9578190505b6119dd6119d585611895565b83018261197c565b50505b505050565b600082821c905092915050565b6000611a03600019846008026119e5565b1980831691505092915050565b6000611a1c83836119f2565b9150826002028217905092915050565b611a35826110f3565b67ffffffffffffffff811115611a4e57611a4d6111e0565b5b611a5882546117ec565b611a6382828561199f565b600060209050601f831160018114611a965760008415611a84578287015190505b611a8e8582611a10565b865550611af6565b601f198416611aa486611880565b60005b82811015611acc57848901518255600182019150602085019450602081019050611aa7565b86831015611ae95784890151611ae5601f8916826119f2565b8355505b6001600288020188555050505b505050505050565b6000611b0982611040565b91507fffffffffffffffffffffffffffffffffffffffffffffffffffffffffffffffff8203611b3b57611b3a61181d565b5b600182019050919050565b7f4e487b7100000000000000000000000000000000000000000000000000000000600052603260045260246000fd5b600081905092915050565b60008190508160005260206000209050919050565b60008154611ba2816117ec565b611bac8186611b75565b94506001821660008114611bc75760018114611bdc57611c0f565b60ff1983168652811515820286019350611c0f565b611be585611b80565b60005b83811015611c0757815481890152600182019150602081019050611be8565b838801955050505b50505092915050565b6000611c248284611b95565b915081905092915050565b600081549050611c3e816117ec565b9050919050565b60008190508160005260206000209050919050565b818103611c68575050611d40565b611c7182611c2f565b67ffffffffffffffff811115611c8a57611c896111e0565b5b611c9482546117ec565b611c9f82828561199f565b6000601f831160018114611cce5760008415611cbc578287015490505b611cc68582611a10565b865550611d39565b601f198416611cdc87611c45565b9650611ce786611880565b60005b82811015611d0f57848901548255600182019150600185019450602081019050611cea565b86831015611d2c5784890154611d28601f8916826119f2565b8355505b6001600288020188555050505b5050505050505b56fea2646970667358221220fb95004adc8cf5138c556282212b6483cba0ca81f7a671caa20d7997be41177664736f6c63430008110033",
  "immutableReferences": {},
  "source": "// SPDX-License-Identifier: MIT\r\n\r\npragma solidity ^0.8.17;\r\n\r\ncontract admin{\r\n\r\n    struct patient{\r\n        string name;\r\n        address add;\r\n        uint age;\r\n        string gender;\r\n        string contact;\r\n        string symptoms;\r\n        string need;\r\n        string assigned;\r\n        uint id;\r\n        string prescription;\r\n    }\r\n\r\n    struct doctor{\r\n        address add;\r\n        uint id;\r\n        int[] patients;\r\n        string specilization;\r\n        string name;\r\n    }\r\n\r\n    doctor[] public Doctors;\r\n    patient[] public Patients;\r\n\r\n    uint patient_count=0;\r\n    uint doctor_count=0;\r\n\r\n    function addPatient(string memory _name,address _add,uint _age, string memory _gender, string memory _symptoms,string memory _need, string memory _phone) payable public {    \r\n        patient memory newp;\r\n        newp.name=_name;\r\n        newp.add=_add;\r\n        newp.age=_age;\r\n        newp.gender=_gender;\r\n        newp.symptoms=_symptoms;\r\n        newp.need=_need;\r\n        newp.contact=_phone;\r\n        newp.assigned=\"\";\r\n        newp.id=patient_count+1;\r\n        newp.prescription=\"none\";\r\n        Patients.push(newp);\r\n        patient_count++;\r\n    }\r\n\r\n    function addDoctor(address _add,int[] memory _patients,string memory _speciality,string memory _name) payable public{\r\n        doctor memory newd;\r\n        newd.name=_name;\r\n        newd.specilization=_speciality;\r\n        newd.patients=_patients;\r\n        newd.add=_add;\r\n        newd.id=doctor_count+1;\r\n        doctor_count++;\r\n        Doctors.push(newd);\r\n    }\r\n\r\n    function checkUp(uint _id, string memory _new) payable public{\r\n        uint i=0;\r\n        while(i<patient_count)\r\n        {\r\n            if(Patients[i].id==_id)\r\n                break;\r\n            i++;\r\n        }\r\n        Patients[i].symptoms=_new;\r\n    }\r\n\r\n    function prescribe(uint _id,string memory pres) payable public{\r\n        uint i=0;\r\n        while(i<patient_count)\r\n        {\r\n            if(Patients[i].id==_id)\r\n                break;\r\n            i++;\r\n        }\r\n        Patients[i].prescription=pres;\r\n    }\r\n\r\n    function assigned() payable public {\r\n        uint i=0;\r\n        while(i<patient_count)\r\n        {\r\n            for(uint j=0;j<doctor_count;j++)\r\n            {\r\n                if(keccak256(bytes(Patients[i].need))==keccak256(bytes(Doctors[j].specilization))){\r\n                    Patients[i].assigned=Doctors[j].name;\r\n                }\r\n            }\r\n        }\r\n    }\r\n\r\n    function doclog(address add,uint _id) view public returns(bool){\r\n        for(uint i=0;i<doctor_count;i++)\r\n        {\r\n            if(Doctors[i].id==_id)\r\n                if(Doctors[i].add==add)\r\n                    return true;\r\n            else\r\n                return false;\r\n        }\r\n    }\r\n\r\n    function patlog(address add,uint _id) view public returns(bool){\r\n        for(uint i=0;i<doctor_count;i++)\r\n        {\r\n            if(Patients[i].id==_id)\r\n                if(Patients[i].add==add)\r\n                    return true;\r\n            else\r\n                return false;\r\n        }\r\n    }\r\n    \r\n}",
  "sourcePath": "C:\\Users\\ambuj\\Desktop\\healthcare system\\contracts\\admin.sol",
  "compiler": {
    "name": "solc",
    "version": "0.8.17+commit.8df45f5f.Emscripten.clang"
  },
  "schemaVersion": "3.4.11",
  "updatedAt": "2023-01-07T20:37:14.655Z",
  "devdoc": {
    "kind": "dev",
    "methods": {},
    "version": 1
  },
  "userdoc": {
    "kind": "user",
    "methods": {},
    "version": 1
  }
}